{
  "contractName": "NftMarket",
  "abi": [
    {
      "inputs": [],
      "stateMutability": "nonpayable",
      "type": "constructor"
    },
    {
      "anonymous": false,
      "inputs": [
        {
          "indexed": true,
          "internalType": "address",
          "name": "owner",
          "type": "address"
        },
        {
          "indexed": true,
          "internalType": "address",
          "name": "approved",
          "type": "address"
        },
        {
          "indexed": true,
          "internalType": "uint256",
          "name": "tokenId",
          "type": "uint256"
        }
      ],
      "name": "Approval",
      "type": "event"
    },
    {
      "anonymous": false,
      "inputs": [
        {
          "indexed": true,
          "internalType": "address",
          "name": "owner",
          "type": "address"
        },
        {
          "indexed": true,
          "internalType": "address",
          "name": "operator",
          "type": "address"
        },
        {
          "indexed": false,
          "internalType": "bool",
          "name": "approved",
          "type": "bool"
        }
      ],
      "name": "ApprovalForAll",
      "type": "event"
    },
    {
      "anonymous": false,
      "inputs": [
        {
          "indexed": false,
          "internalType": "uint256",
          "name": "tokenId",
          "type": "uint256"
        },
        {
          "indexed": false,
          "internalType": "uint256",
          "name": "price",
          "type": "uint256"
        },
        {
          "indexed": false,
          "internalType": "address",
          "name": "creator",
          "type": "address"
        },
        {
          "indexed": false,
          "internalType": "bool",
          "name": "isListed",
          "type": "bool"
        }
      ],
      "name": "NftItemCreated",
      "type": "event"
    },
    {
      "anonymous": false,
      "inputs": [
        {
          "indexed": true,
          "internalType": "address",
          "name": "previousOwner",
          "type": "address"
        },
        {
          "indexed": true,
          "internalType": "address",
          "name": "newOwner",
          "type": "address"
        }
      ],
      "name": "OwnershipTransferred",
      "type": "event"
    },
    {
      "anonymous": false,
      "inputs": [
        {
          "indexed": true,
          "internalType": "address",
          "name": "from",
          "type": "address"
        },
        {
          "indexed": true,
          "internalType": "address",
          "name": "to",
          "type": "address"
        },
        {
          "indexed": true,
          "internalType": "uint256",
          "name": "tokenId",
          "type": "uint256"
        }
      ],
      "name": "Transfer",
      "type": "event"
    },
    {
      "inputs": [
        {
          "internalType": "address",
          "name": "to",
          "type": "address"
        },
        {
          "internalType": "uint256",
          "name": "tokenId",
          "type": "uint256"
        }
      ],
      "name": "approve",
      "outputs": [],
      "stateMutability": "nonpayable",
      "type": "function"
    },
    {
      "inputs": [
        {
          "internalType": "address",
          "name": "owner",
          "type": "address"
        }
      ],
      "name": "balanceOf",
      "outputs": [
        {
          "internalType": "uint256",
          "name": "",
          "type": "uint256"
        }
      ],
      "stateMutability": "view",
      "type": "function",
      "constant": true
    },
    {
      "inputs": [
        {
          "internalType": "uint256",
          "name": "tokenId",
          "type": "uint256"
        }
      ],
      "name": "getApproved",
      "outputs": [
        {
          "internalType": "address",
          "name": "",
          "type": "address"
        }
      ],
      "stateMutability": "view",
      "type": "function",
      "constant": true
    },
    {
      "inputs": [
        {
          "internalType": "address",
          "name": "owner",
          "type": "address"
        },
        {
          "internalType": "address",
          "name": "operator",
          "type": "address"
        }
      ],
      "name": "isApprovedForAll",
      "outputs": [
        {
          "internalType": "bool",
          "name": "",
          "type": "bool"
        }
      ],
      "stateMutability": "view",
      "type": "function",
      "constant": true
    },
    {
      "inputs": [],
      "name": "listingPrice",
      "outputs": [
        {
          "internalType": "uint256",
          "name": "",
          "type": "uint256"
        }
      ],
      "stateMutability": "view",
      "type": "function",
      "constant": true
    },
    {
      "inputs": [],
      "name": "name",
      "outputs": [
        {
          "internalType": "string",
          "name": "",
          "type": "string"
        }
      ],
      "stateMutability": "view",
      "type": "function",
      "constant": true
    },
    {
      "inputs": [],
      "name": "owner",
      "outputs": [
        {
          "internalType": "address",
          "name": "",
          "type": "address"
        }
      ],
      "stateMutability": "view",
      "type": "function",
      "constant": true
    },
    {
      "inputs": [
        {
          "internalType": "uint256",
          "name": "tokenId",
          "type": "uint256"
        }
      ],
      "name": "ownerOf",
      "outputs": [
        {
          "internalType": "address",
          "name": "",
          "type": "address"
        }
      ],
      "stateMutability": "view",
      "type": "function",
      "constant": true
    },
    {
      "inputs": [],
      "name": "renounceOwnership",
      "outputs": [],
      "stateMutability": "nonpayable",
      "type": "function"
    },
    {
      "inputs": [
        {
          "internalType": "address",
          "name": "from",
          "type": "address"
        },
        {
          "internalType": "address",
          "name": "to",
          "type": "address"
        },
        {
          "internalType": "uint256",
          "name": "tokenId",
          "type": "uint256"
        }
      ],
      "name": "safeTransferFrom",
      "outputs": [],
      "stateMutability": "nonpayable",
      "type": "function"
    },
    {
      "inputs": [
        {
          "internalType": "address",
          "name": "from",
          "type": "address"
        },
        {
          "internalType": "address",
          "name": "to",
          "type": "address"
        },
        {
          "internalType": "uint256",
          "name": "tokenId",
          "type": "uint256"
        },
        {
          "internalType": "bytes",
          "name": "_data",
          "type": "bytes"
        }
      ],
      "name": "safeTransferFrom",
      "outputs": [],
      "stateMutability": "nonpayable",
      "type": "function"
    },
    {
      "inputs": [
        {
          "internalType": "address",
          "name": "operator",
          "type": "address"
        },
        {
          "internalType": "bool",
          "name": "approved",
          "type": "bool"
        }
      ],
      "name": "setApprovalForAll",
      "outputs": [],
      "stateMutability": "nonpayable",
      "type": "function"
    },
    {
      "inputs": [
        {
          "internalType": "bytes4",
          "name": "interfaceId",
          "type": "bytes4"
        }
      ],
      "name": "supportsInterface",
      "outputs": [
        {
          "internalType": "bool",
          "name": "",
          "type": "bool"
        }
      ],
      "stateMutability": "view",
      "type": "function",
      "constant": true
    },
    {
      "inputs": [],
      "name": "symbol",
      "outputs": [
        {
          "internalType": "string",
          "name": "",
          "type": "string"
        }
      ],
      "stateMutability": "view",
      "type": "function",
      "constant": true
    },
    {
      "inputs": [
        {
          "internalType": "uint256",
          "name": "tokenId",
          "type": "uint256"
        }
      ],
      "name": "tokenURI",
      "outputs": [
        {
          "internalType": "string",
          "name": "",
          "type": "string"
        }
      ],
      "stateMutability": "view",
      "type": "function",
      "constant": true
    },
    {
      "inputs": [
        {
          "internalType": "address",
          "name": "from",
          "type": "address"
        },
        {
          "internalType": "address",
          "name": "to",
          "type": "address"
        },
        {
          "internalType": "uint256",
          "name": "tokenId",
          "type": "uint256"
        }
      ],
      "name": "transferFrom",
      "outputs": [],
      "stateMutability": "nonpayable",
      "type": "function"
    },
    {
      "inputs": [
        {
          "internalType": "address",
          "name": "newOwner",
          "type": "address"
        }
      ],
      "name": "transferOwnership",
      "outputs": [],
      "stateMutability": "nonpayable",
      "type": "function"
    },
    {
      "inputs": [
        {
          "internalType": "uint256",
          "name": "newPrice",
          "type": "uint256"
        }
      ],
      "name": "setListingPrice",
      "outputs": [],
      "stateMutability": "nonpayable",
      "type": "function"
    },
    {
      "inputs": [
        {
          "internalType": "uint256",
          "name": "tokenId",
          "type": "uint256"
        }
      ],
      "name": "getNftItem",
      "outputs": [
        {
          "components": [
            {
              "internalType": "uint256",
              "name": "tokenId",
              "type": "uint256"
            },
            {
              "internalType": "uint256",
              "name": "price",
              "type": "uint256"
            },
            {
              "internalType": "address",
              "name": "creator",
              "type": "address"
            },
            {
              "internalType": "bool",
              "name": "isListed",
              "type": "bool"
            }
          ],
          "internalType": "struct NftMarket.NftItem",
          "name": "",
          "type": "tuple"
        }
      ],
      "stateMutability": "view",
      "type": "function",
      "constant": true
    },
    {
      "inputs": [],
      "name": "listedItemsCount",
      "outputs": [
        {
          "internalType": "uint256",
          "name": "",
          "type": "uint256"
        }
      ],
      "stateMutability": "view",
      "type": "function",
      "constant": true
    },
    {
      "inputs": [
        {
          "internalType": "string",
          "name": "tokenURI",
          "type": "string"
        }
      ],
      "name": "tokenURIExists",
      "outputs": [
        {
          "internalType": "bool",
          "name": "",
          "type": "bool"
        }
      ],
      "stateMutability": "view",
      "type": "function",
      "constant": true
    },
    {
      "inputs": [],
      "name": "totalSupply",
      "outputs": [
        {
          "internalType": "uint256",
          "name": "",
          "type": "uint256"
        }
      ],
      "stateMutability": "view",
      "type": "function",
      "constant": true
    },
    {
      "inputs": [
        {
          "internalType": "uint256",
          "name": "index",
          "type": "uint256"
        }
      ],
      "name": "tokenByIndex",
      "outputs": [
        {
          "internalType": "uint256",
          "name": "",
          "type": "uint256"
        }
      ],
      "stateMutability": "view",
      "type": "function",
      "constant": true
    },
    {
      "inputs": [
        {
          "internalType": "address",
          "name": "owner",
          "type": "address"
        },
        {
          "internalType": "uint256",
          "name": "index",
          "type": "uint256"
        }
      ],
      "name": "tokenOfOwnerByIndex",
      "outputs": [
        {
          "internalType": "uint256",
          "name": "",
          "type": "uint256"
        }
      ],
      "stateMutability": "view",
      "type": "function",
      "constant": true
    },
    {
      "inputs": [],
      "name": "getAllNftsOnSale",
      "outputs": [
        {
          "components": [
            {
              "internalType": "uint256",
              "name": "tokenId",
              "type": "uint256"
            },
            {
              "internalType": "uint256",
              "name": "price",
              "type": "uint256"
            },
            {
              "internalType": "address",
              "name": "creator",
              "type": "address"
            },
            {
              "internalType": "bool",
              "name": "isListed",
              "type": "bool"
            }
          ],
          "internalType": "struct NftMarket.NftItem[]",
          "name": "",
          "type": "tuple[]"
        }
      ],
      "stateMutability": "view",
      "type": "function",
      "constant": true
    },
    {
      "inputs": [],
      "name": "getOwnedNfts",
      "outputs": [
        {
          "components": [
            {
              "internalType": "uint256",
              "name": "tokenId",
              "type": "uint256"
            },
            {
              "internalType": "uint256",
              "name": "price",
              "type": "uint256"
            },
            {
              "internalType": "address",
              "name": "creator",
              "type": "address"
            },
            {
              "internalType": "bool",
              "name": "isListed",
              "type": "bool"
            }
          ],
          "internalType": "struct NftMarket.NftItem[]",
          "name": "",
          "type": "tuple[]"
        }
      ],
      "stateMutability": "view",
      "type": "function",
      "constant": true
    },
    {
      "inputs": [
        {
          "internalType": "string",
          "name": "tokenURI",
          "type": "string"
        },
        {
          "internalType": "uint256",
          "name": "price",
          "type": "uint256"
        }
      ],
      "name": "mintToken",
      "outputs": [
        {
          "internalType": "uint256",
          "name": "",
          "type": "uint256"
        }
      ],
      "stateMutability": "payable",
      "type": "function",
      "payable": true
    },
    {
      "inputs": [
        {
          "internalType": "uint256",
          "name": "tokenId",
          "type": "uint256"
        }
      ],
      "name": "buyNft",
      "outputs": [],
      "stateMutability": "payable",
      "type": "function",
      "payable": true
    },
    {
      "inputs": [
        {
          "internalType": "uint256",
          "name": "tokenId",
          "type": "uint256"
        },
        {
          "internalType": "uint256",
          "name": "newPrice",
          "type": "uint256"
        }
      ],
      "name": "placeNftOnSale",
      "outputs": [],
      "stateMutability": "payable",
      "type": "function",
      "payable": true
    }
  ],
  "bytecode": "0x60806040526658d15e176280006008553480156200001c57600080fd5b506040518060400160405280600a81526020017f506c61796572734e4654000000000000000000000000000000000000000000008152506040518060400160405280600481526020017f504e4654000000000000000000000000000000000000000000000000000000008152508160009080519060200190620000a1929190620001b1565b508060019080519060200190620000ba929190620001b1565b505050620000dd620000d1620000e360201b60201c565b620000eb60201b60201c565b620002c5565b600033905090565b6000600760009054906101000a900473ffffffffffffffffffffffffffffffffffffffff16905081600760006101000a81548173ffffffffffffffffffffffffffffffffffffffff021916908373ffffffffffffffffffffffffffffffffffffffff1602179055508173ffffffffffffffffffffffffffffffffffffffff168173ffffffffffffffffffffffffffffffffffffffff167f8be0079c531659141344cd1fd0a4f28419497f9722a3daafe3b4186f6b6457e060405160405180910390a35050565b828054620001bf9062000290565b90600052602060002090601f016020900481019282620001e357600085556200022f565b82601f10620001fe57805160ff19168380011785556200022f565b828001600101855582156200022f579182015b828111156200022e57825182559160200191906001019062000211565b5b5090506200023e919062000242565b5090565b5b808211156200025d57600081600090555060010162000243565b5090565b7f4e487b7100000000000000000000000000000000000000000000000000000000600052602260045260246000fd5b60006002820490506001821680620002a957607f821691505b602082108103620002bf57620002be62000261565b5b50919050565b614abf80620002d56000396000f3fe6080604052600436106101c25760003560e01c80636f1a0af5116100f7578063a22cb46511610095578063c87b56dd11610064578063c87b56dd14610651578063ccb4918d1461068e578063e985e9c5146106b9578063f2fde38b146106f6576101c2565b8063a22cb465146105a4578063b88d4fde146105cd578063c046372c146105f6578063c78f19f914610626576101c2565b8063715018a6116100d1578063715018a61461050e5780637c726b69146105255780638da5cb5b1461054e57806395d89b4114610579576101c2565b80636f1a0af51461046957806370a08231146104a657806370cbcb43146104e3576101c2565b8063243adbdd1161016457806342842e0e1161013e57806342842e0e1461038957806343d32ae7146103b25780634f6ccce7146103ef5780636352211e1461042c576101c2565b8063243adbdd146103055780632f745c591461032157806336b536be1461035e576101c2565b8063095ea7b3116101a0578063095ea7b31461026c57806318160ddd1461029557806321f422e5146102c057806323b872dd146102dc576101c2565b806301ffc9a7146101c757806306fdde0314610204578063081812fc1461022f575b600080fd5b3480156101d357600080fd5b506101ee60048036038101906101e99190612fca565b61071f565b6040516101fb9190613012565b60405180910390f35b34801561021057600080fd5b50610219610801565b60405161022691906130c6565b60405180910390f35b34801561023b57600080fd5b506102566004803603810190610251919061311e565b610893565b604051610263919061318c565b60405180910390f35b34801561027857600080fd5b50610293600480360381019061028e91906131d3565b610918565b005b3480156102a157600080fd5b506102aa610a2f565b6040516102b79190613222565b60405180910390f35b6102da60048036038101906102d5919061323d565b610a3c565b005b3480156102e857600080fd5b5061030360048036038101906102fe919061327d565b610bb8565b005b61031f600480360381019061031a919061311e565b610c18565b005b34801561032d57600080fd5b50610348600480360381019061034391906131d3565b610d80565b6040516103559190613222565b60405180910390f35b34801561036a57600080fd5b50610373610e25565b6040516103809190613401565b60405180910390f35b34801561039557600080fd5b506103b060048036038101906103ab919061327d565b610fbf565b005b3480156103be57600080fd5b506103d960048036038101906103d49190613558565b610fdf565b6040516103e69190613012565b60405180910390f35b3480156103fb57600080fd5b506104166004803603810190610411919061311e565b61101b565b6040516104239190613222565b60405180910390f35b34801561043857600080fd5b50610453600480360381019061044e919061311e565b61108c565b604051610460919061318c565b60405180910390f35b34801561047557600080fd5b50610490600480360381019061048b919061311e565b61113d565b60405161049d91906135f6565b60405180910390f35b3480156104b257600080fd5b506104cd60048036038101906104c89190613611565b6111ef565b6040516104da9190613222565b60405180910390f35b3480156104ef57600080fd5b506104f86112a6565b6040516105059190613401565b60405180910390f35b34801561051a57600080fd5b5061052361140a565b005b34801561053157600080fd5b5061054c6004803603810190610547919061311e565b611492565b005b34801561055a57600080fd5b5061056361155b565b604051610570919061318c565b60405180910390f35b34801561058557600080fd5b5061058e611585565b60405161059b91906130c6565b60405180910390f35b3480156105b057600080fd5b506105cb60048036038101906105c6919061366a565b611617565b005b3480156105d957600080fd5b506105f460048036038101906105ef919061374b565b61162d565b005b610610600480360381019061060b91906137ce565b61168f565b60405161061d9190613222565b60405180910390f35b34801561063257600080fd5b5061063b61179f565b6040516106489190613222565b60405180910390f35b34801561065d57600080fd5b506106786004803603810190610673919061311e565b6117a5565b60405161068591906130c6565b60405180910390f35b34801561069a57600080fd5b506106a36118f6565b6040516106b09190613222565b60405180910390f35b3480156106c557600080fd5b506106e060048036038101906106db919061382a565b611907565b6040516106ed9190613012565b60405180910390f35b34801561070257600080fd5b5061071d60048036038101906107189190613611565b61199b565b005b60007f80ac58cd000000000000000000000000000000000000000000000000000000007bffffffffffffffffffffffffffffffffffffffffffffffffffffffff1916827bffffffffffffffffffffffffffffffffffffffffffffffffffffffff191614806107ea57507f5b5e139f000000000000000000000000000000000000000000000000000000007bffffffffffffffffffffffffffffffffffffffffffffffffffffffff1916827bffffffffffffffffffffffffffffffffffffffffffffffffffffffff1916145b806107fa57506107f982611a92565b5b9050919050565b60606000805461081090613899565b80601f016020809104026020016040519081016040528092919081815260200182805461083c90613899565b80156108895780601f1061085e57610100808354040283529160200191610889565b820191906000526020600020905b81548152906001019060200180831161086c57829003601f168201915b5050505050905090565b600061089e82611afc565b6108dd576040517f08c379a00000000000000000000000000000000000000000000000000000000081526004016108d49061393c565b60405180910390fd5b6004600083815260200190815260200160002060009054906101000a900473ffffffffffffffffffffffffffffffffffffffff169050919050565b60006109238261108c565b90508073ffffffffffffffffffffffffffffffffffffffff168373ffffffffffffffffffffffffffffffffffffffff1603610993576040517f08c379a000000000000000000000000000000000000000000000000000000000815260040161098a906139ce565b60405180910390fd5b8073ffffffffffffffffffffffffffffffffffffffff166109b2611b68565b73ffffffffffffffffffffffffffffffffffffffff1614806109e157506109e0816109db611b68565b611907565b5b610a20576040517f08c379a0000000000000000000000000000000000000000000000000000000008152600401610a1790613a60565b60405180910390fd5b610a2a8383611b70565b505050565b6000600f80549050905090565b3373ffffffffffffffffffffffffffffffffffffffff16610a5c8361108c565b73ffffffffffffffffffffffffffffffffffffffff1614610ab2576040517f08c379a0000000000000000000000000000000000000000000000000000000008152600401610aa990613af2565b60405180910390fd5b60001515600c600084815260200190815260200160002060020160149054906101000a900460ff16151514610b1c576040517f08c379a0000000000000000000000000000000000000000000000000000000008152600401610b1390613b5e565b60405180910390fd5b6008543414610b60576040517f08c379a0000000000000000000000000000000000000000000000000000000008152600401610b5790613bf0565b60405180910390fd5b6001600c600084815260200190815260200160002060020160146101000a81548160ff02191690831515021790555080600c600084815260200190815260200160002060010181905550610bb46009611c29565b5050565b610bc9610bc3611b68565b82611c3f565b610c08576040517f08c379a0000000000000000000000000000000000000000000000000000000008152600401610bff90613c82565b60405180910390fd5b610c13838383611d1d565b505050565b6000600c60008381526020019081526020016000206001015490506000610c3e8361108c565b90508073ffffffffffffffffffffffffffffffffffffffff163373ffffffffffffffffffffffffffffffffffffffff1603610cae576040517f08c379a0000000000000000000000000000000000000000000000000000000008152600401610ca590613cee565b60405180910390fd5b813414610cf0576040517f08c379a0000000000000000000000000000000000000000000000000000000008152600401610ce790613d5a565b60405180910390fd5b6000600c600085815260200190815260200160002060020160146101000a81548160ff021916908315150217905550610d296009611f83565b610d34813385611d1d565b8073ffffffffffffffffffffffffffffffffffffffff166108fc349081150290604051600060405180830381858888f19350505050158015610d7a573d6000803e3d6000fd5b50505050565b6000610d8b836111ef565b8210610dcc576040517f08c379a0000000000000000000000000000000000000000000000000000000008152600401610dc390613dc6565b60405180910390fd5b600d60008473ffffffffffffffffffffffffffffffffffffffff1673ffffffffffffffffffffffffffffffffffffffff168152602001908152602001600020600083815260200190815260200160002054905092915050565b60606000610e31610a2f565b9050600080610e406009611fdf565b67ffffffffffffffff811115610e5957610e5861342d565b5b604051908082528060200260200182016040528015610e9257816020015b610e7f612e7b565b815260200190600190039081610e775790505b50905060005b83811015610fb5576000610eab8261101b565b90506000600c60008381526020019081526020016000209050600115158160020160149054906101000a900460ff16151503610fa0578060405180608001604052908160008201548152602001600182015481526020016002820160009054906101000a900473ffffffffffffffffffffffffffffffffffffffff1673ffffffffffffffffffffffffffffffffffffffff1673ffffffffffffffffffffffffffffffffffffffff1681526020016002820160149054906101000a900460ff161515151581525050848681518110610f8557610f84613de6565b5b6020026020010181905250600185610f9d9190613e44565b94505b50508080610fad90613e9a565b915050610e98565b5080935050505090565b610fda8383836040518060200160405280600081525061162d565b505050565b600060011515600b83604051610ff59190613f1e565b908152602001604051809103902060009054906101000a900460ff161515149050919050565b6000611025610a2f565b8210611066576040517f08c379a000000000000000000000000000000000000000000000000000000000815260040161105d90613dc6565b60405180910390fd5b600f828154811061107a57611079613de6565b5b90600052602060002001549050919050565b6000806002600084815260200190815260200160002060009054906101000a900473ffffffffffffffffffffffffffffffffffffffff169050600073ffffffffffffffffffffffffffffffffffffffff168173ffffffffffffffffffffffffffffffffffffffff1603611134576040517f08c379a000000000000000000000000000000000000000000000000000000000815260040161112b90613fa7565b60405180910390fd5b80915050919050565b611145612e7b565b600c600083815260200190815260200160002060405180608001604052908160008201548152602001600182015481526020016002820160009054906101000a900473ffffffffffffffffffffffffffffffffffffffff1673ffffffffffffffffffffffffffffffffffffffff1673ffffffffffffffffffffffffffffffffffffffff1681526020016002820160149054906101000a900460ff1615151515815250509050919050565b60008073ffffffffffffffffffffffffffffffffffffffff168273ffffffffffffffffffffffffffffffffffffffff160361125f576040517f08c379a000000000000000000000000000000000000000000000000000000000815260040161125690614039565b60405180910390fd5b600360008373ffffffffffffffffffffffffffffffffffffffff1673ffffffffffffffffffffffffffffffffffffffff168152602001908152602001600020549050919050565b606060006112b3336111ef565b905060008167ffffffffffffffff8111156112d1576112d061342d565b5b60405190808252806020026020018201604052801561130a57816020015b6112f7612e7b565b8152602001906001900390816112ef5790505b50905060005b828110156114015760006113243383610d80565b90506000600c600083815260200190815260200160002090508060405180608001604052908160008201548152602001600182015481526020016002820160009054906101000a900473ffffffffffffffffffffffffffffffffffffffff1673ffffffffffffffffffffffffffffffffffffffff1673ffffffffffffffffffffffffffffffffffffffff1681526020016002820160149054906101000a900460ff1615151515815250508484815181106113e1576113e0613de6565b5b6020026020010181905250505080806113f990613e9a565b915050611310565b50809250505090565b611412611b68565b73ffffffffffffffffffffffffffffffffffffffff1661143061155b565b73ffffffffffffffffffffffffffffffffffffffff1614611486576040517f08c379a000000000000000000000000000000000000000000000000000000000815260040161147d906140a5565b60405180910390fd5b6114906000611fed565b565b61149a611b68565b73ffffffffffffffffffffffffffffffffffffffff166114b861155b565b73ffffffffffffffffffffffffffffffffffffffff161461150e576040517f08c379a0000000000000000000000000000000000000000000000000000000008152600401611505906140a5565b60405180910390fd5b60008111611551576040517f08c379a000000000000000000000000000000000000000000000000000000000815260040161154890614111565b60405180910390fd5b8060088190555050565b6000600760009054906101000a900473ffffffffffffffffffffffffffffffffffffffff16905090565b60606001805461159490613899565b80601f01602080910402602001604051908101604052809291908181526020018280546115c090613899565b801561160d5780601f106115e25761010080835404028352916020019161160d565b820191906000526020600020905b8154815290600101906020018083116115f057829003601f168201915b5050505050905090565b611629611622611b68565b83836120b3565b5050565b61163e611638611b68565b83611c3f565b61167d576040517f08c379a000000000000000000000000000000000000000000000000000000000815260040161167490613c82565b60405180910390fd5b6116898484848461221f565b50505050565b600061169a83610fdf565b156116da576040517f08c379a00000000000000000000000000000000000000000000000000000000081526004016116d19061417d565b60405180910390fd5b600854341461171e576040517f08c379a000000000000000000000000000000000000000000000000000000000815260040161171590613bf0565b60405180910390fd5b611728600a611c29565b6117326009611c29565b600061173e600a611fdf565b905061174a338261227b565b6117548185612299565b61175e818461230d565b6001600b856040516117709190613f1e565b908152602001604051809103902060006101000a81548160ff0219169083151502179055508091505092915050565b60085481565b60606117b082611afc565b6117ef576040517f08c379a00000000000000000000000000000000000000000000000000000000081526004016117e69061420f565b60405180910390fd5b600060066000848152602001908152602001600020805461180f90613899565b80601f016020809104026020016040519081016040528092919081815260200182805461183b90613899565b80156118885780601f1061185d57610100808354040283529160200191611888565b820191906000526020600020905b81548152906001019060200180831161186b57829003601f168201915b50505050509050600061189961245d565b905060008151036118ae5781925050506118f1565b6000825111156118e35780826040516020016118cb92919061422f565b604051602081830303815290604052925050506118f1565b6118ec84612474565b925050505b919050565b60006119026009611fdf565b905090565b6000600560008473ffffffffffffffffffffffffffffffffffffffff1673ffffffffffffffffffffffffffffffffffffffff16815260200190815260200160002060008373ffffffffffffffffffffffffffffffffffffffff1673ffffffffffffffffffffffffffffffffffffffff16815260200190815260200160002060009054906101000a900460ff16905092915050565b6119a3611b68565b73ffffffffffffffffffffffffffffffffffffffff166119c161155b565b73ffffffffffffffffffffffffffffffffffffffff1614611a17576040517f08c379a0000000000000000000000000000000000000000000000000000000008152600401611a0e906140a5565b60405180910390fd5b600073ffffffffffffffffffffffffffffffffffffffff168173ffffffffffffffffffffffffffffffffffffffff1603611a86576040517f08c379a0000000000000000000000000000000000000000000000000000000008152600401611a7d906142c5565b60405180910390fd5b611a8f81611fed565b50565b60007f01ffc9a7000000000000000000000000000000000000000000000000000000007bffffffffffffffffffffffffffffffffffffffffffffffffffffffff1916827bffffffffffffffffffffffffffffffffffffffffffffffffffffffff1916149050919050565b60008073ffffffffffffffffffffffffffffffffffffffff166002600084815260200190815260200160002060009054906101000a900473ffffffffffffffffffffffffffffffffffffffff1673ffffffffffffffffffffffffffffffffffffffff1614159050919050565b600033905090565b816004600083815260200190815260200160002060006101000a81548173ffffffffffffffffffffffffffffffffffffffff021916908373ffffffffffffffffffffffffffffffffffffffff160217905550808273ffffffffffffffffffffffffffffffffffffffff16611be38361108c565b73ffffffffffffffffffffffffffffffffffffffff167f8c5be1e5ebec7d5bd14f71427d1e84f3dd0314c0f7b2291e5b200ac8c7c3b92560405160405180910390a45050565b6001816000016000828254019250508190555050565b6000611c4a82611afc565b611c89576040517f08c379a0000000000000000000000000000000000000000000000000000000008152600401611c8090614357565b60405180910390fd5b6000611c948361108c565b90508073ffffffffffffffffffffffffffffffffffffffff168473ffffffffffffffffffffffffffffffffffffffff161480611cd65750611cd58185611907565b5b80611d1457508373ffffffffffffffffffffffffffffffffffffffff16611cfc84610893565b73ffffffffffffffffffffffffffffffffffffffff16145b91505092915050565b8273ffffffffffffffffffffffffffffffffffffffff16611d3d8261108c565b73ffffffffffffffffffffffffffffffffffffffff1614611d93576040517f08c379a0000000000000000000000000000000000000000000000000000000008152600401611d8a906143e9565b60405180910390fd5b600073ffffffffffffffffffffffffffffffffffffffff168273ffffffffffffffffffffffffffffffffffffffff1603611e02576040517f08c379a0000000000000000000000000000000000000000000000000000000008152600401611df99061447b565b60405180910390fd5b611e0d83838361251b565b611e18600082611b70565b6001600360008573ffffffffffffffffffffffffffffffffffffffff1673ffffffffffffffffffffffffffffffffffffffff1681526020019081526020016000206000828254611e68919061449b565b925050819055506001600360008473ffffffffffffffffffffffffffffffffffffffff1673ffffffffffffffffffffffffffffffffffffffff1681526020019081526020016000206000828254611ebf9190613e44565b92505081905550816002600083815260200190815260200160002060006101000a81548173ffffffffffffffffffffffffffffffffffffffff021916908373ffffffffffffffffffffffffffffffffffffffff160217905550808273ffffffffffffffffffffffffffffffffffffffff168473ffffffffffffffffffffffffffffffffffffffff167fddf252ad1be2c89b69c2b068fc378daa952ba7f163c4a11628f55a4df523b3ef60405160405180910390a4611f7e83838361262d565b505050565b60008160000154905060008111611fcf576040517f08c379a0000000000000000000000000000000000000000000000000000000008152600401611fc69061451b565b60405180910390fd5b6001810382600001819055505050565b600081600001549050919050565b6000600760009054906101000a900473ffffffffffffffffffffffffffffffffffffffff16905081600760006101000a81548173ffffffffffffffffffffffffffffffffffffffff021916908373ffffffffffffffffffffffffffffffffffffffff1602179055508173ffffffffffffffffffffffffffffffffffffffff168173ffffffffffffffffffffffffffffffffffffffff167f8be0079c531659141344cd1fd0a4f28419497f9722a3daafe3b4186f6b6457e060405160405180910390a35050565b8173ffffffffffffffffffffffffffffffffffffffff168373ffffffffffffffffffffffffffffffffffffffff1603612121576040517f08c379a000000000000000000000000000000000000000000000000000000000815260040161211890614587565b60405180910390fd5b80600560008573ffffffffffffffffffffffffffffffffffffffff1673ffffffffffffffffffffffffffffffffffffffff16815260200190815260200160002060008473ffffffffffffffffffffffffffffffffffffffff1673ffffffffffffffffffffffffffffffffffffffff16815260200190815260200160002060006101000a81548160ff0219169083151502179055508173ffffffffffffffffffffffffffffffffffffffff168373ffffffffffffffffffffffffffffffffffffffff167f17307eab39ab6107e8899845ad3d59bd9653f200f220920489ca2b5937696c31836040516122129190613012565b60405180910390a3505050565b61222a848484611d1d565b61223684848484612632565b612275576040517f08c379a000000000000000000000000000000000000000000000000000000000815260040161226c90614619565b60405180910390fd5b50505050565b6122958282604051806020016040528060008152506127b9565b5050565b6122a282611afc565b6122e1576040517f08c379a00000000000000000000000000000000000000000000000000000000081526004016122d8906146ab565b60405180910390fd5b80600660008481526020019081526020016000209080519060200190612308929190612ebb565b505050565b60008111612350576040517f08c379a000000000000000000000000000000000000000000000000000000000815260040161234790614717565b60405180910390fd5b60405180608001604052808381526020018281526020013373ffffffffffffffffffffffffffffffffffffffff16815260200160011515815250600c6000848152602001908152602001600020600082015181600001556020820151816001015560408201518160020160006101000a81548173ffffffffffffffffffffffffffffffffffffffff021916908373ffffffffffffffffffffffffffffffffffffffff16021790555060608201518160020160146101000a81548160ff0219169083151502179055509050507f470031062672bc0246e132c723a729c4676710ec663a29e86c88678032daddea82823360016040516124519493929190614737565b60405180910390a15050565b606060405180602001604052806000815250905090565b606061247f82611afc565b6124be576040517f08c379a00000000000000000000000000000000000000000000000000000000081526004016124b5906147ee565b60405180910390fd5b60006124c861245d565b905060008151116124e85760405180602001604052806000815250612513565b806124f284612814565b60405160200161250392919061422f565b6040516020818303038152906040525b915050919050565b612526838383612974565b600073ffffffffffffffffffffffffffffffffffffffff168373ffffffffffffffffffffffffffffffffffffffff16036125685761256381612979565b6125a7565b8173ffffffffffffffffffffffffffffffffffffffff168373ffffffffffffffffffffffffffffffffffffffff16146125a6576125a583826129c2565b5b5b600073ffffffffffffffffffffffffffffffffffffffff168273ffffffffffffffffffffffffffffffffffffffff16036125e9576125e481612b2f565b612628565b8273ffffffffffffffffffffffffffffffffffffffff168273ffffffffffffffffffffffffffffffffffffffff1614612627576126268282612c00565b5b5b505050565b505050565b60006126538473ffffffffffffffffffffffffffffffffffffffff16612c7f565b156127ac578373ffffffffffffffffffffffffffffffffffffffff1663150b7a0261267c611b68565b8786866040518563ffffffff1660e01b815260040161269e9493929190614863565b6020604051808303816000875af19250505080156126da57506040513d601f19601f820116820180604052508101906126d791906148c4565b60015b61275c573d806000811461270a576040519150601f19603f3d011682016040523d82523d6000602084013e61270f565b606091505b506000815103612754576040517f08c379a000000000000000000000000000000000000000000000000000000000815260040161274b90614619565b60405180910390fd5b805181602001fd5b63150b7a0260e01b7bffffffffffffffffffffffffffffffffffffffffffffffffffffffff1916817bffffffffffffffffffffffffffffffffffffffffffffffffffffffff1916149150506127b1565b600190505b949350505050565b6127c38383612ca2565b6127d06000848484612632565b61280f576040517f08c379a000000000000000000000000000000000000000000000000000000000815260040161280690614619565b60405180910390fd5b505050565b60606000820361285b576040518060400160405280600181526020017f3000000000000000000000000000000000000000000000000000000000000000815250905061296f565b600082905060005b6000821461288d57808061287690613e9a565b915050600a826128869190614920565b9150612863565b60008167ffffffffffffffff8111156128a9576128a861342d565b5b6040519080825280601f01601f1916602001820160405280156128db5781602001600182028036833780820191505090505b5090505b60008514612968576001826128f4919061449b565b9150600a856129039190614951565b603061290f9190613e44565b60f81b81838151811061292557612924613de6565b5b60200101907effffffffffffffffffffffffffffffffffffffffffffffffffffffffffffff1916908160001a905350600a856129619190614920565b94506128df565b8093505050505b919050565b505050565b600f805490506010600083815260200190815260200160002081905550600f81908060018154018082558091505060019003906000526020600020016000909190919091505550565b600060016129cf846111ef565b6129d9919061449b565b90506000600e6000848152602001908152602001600020549050818114612abe576000600d60008673ffffffffffffffffffffffffffffffffffffffff1673ffffffffffffffffffffffffffffffffffffffff168152602001908152602001600020600084815260200190815260200160002054905080600d60008773ffffffffffffffffffffffffffffffffffffffff1673ffffffffffffffffffffffffffffffffffffffff16815260200190815260200160002060008481526020019081526020016000208190555081600e600083815260200190815260200160002081905550505b600e600084815260200190815260200160002060009055600d60008573ffffffffffffffffffffffffffffffffffffffff1673ffffffffffffffffffffffffffffffffffffffff16815260200190815260200160002060008381526020019081526020016000206000905550505050565b60006001600f80549050612b43919061449b565b90506000601060008481526020019081526020016000205490506000600f8381548110612b7357612b72613de6565b5b9060005260206000200154905080600f8381548110612b9557612b94613de6565b5b90600052602060002001819055508160106000838152602001908152602001600020819055506010600085815260200190815260200160002060009055600f805480612be457612be3614982565b5b6001900381819060005260206000200160009055905550505050565b6000612c0b836111ef565b905081600d60008573ffffffffffffffffffffffffffffffffffffffff1673ffffffffffffffffffffffffffffffffffffffff16815260200190815260200160002060008381526020019081526020016000208190555080600e600084815260200190815260200160002081905550505050565b6000808273ffffffffffffffffffffffffffffffffffffffff163b119050919050565b600073ffffffffffffffffffffffffffffffffffffffff168273ffffffffffffffffffffffffffffffffffffffff1603612d11576040517f08c379a0000000000000000000000000000000000000000000000000000000008152600401612d08906149fd565b60405180910390fd5b612d1a81611afc565b15612d5a576040517f08c379a0000000000000000000000000000000000000000000000000000000008152600401612d5190614a69565b60405180910390fd5b612d666000838361251b565b6001600360008473ffffffffffffffffffffffffffffffffffffffff1673ffffffffffffffffffffffffffffffffffffffff1681526020019081526020016000206000828254612db69190613e44565b92505081905550816002600083815260200190815260200160002060006101000a81548173ffffffffffffffffffffffffffffffffffffffff021916908373ffffffffffffffffffffffffffffffffffffffff160217905550808273ffffffffffffffffffffffffffffffffffffffff16600073ffffffffffffffffffffffffffffffffffffffff167fddf252ad1be2c89b69c2b068fc378daa952ba7f163c4a11628f55a4df523b3ef60405160405180910390a4612e776000838361262d565b5050565b60405180608001604052806000815260200160008152602001600073ffffffffffffffffffffffffffffffffffffffff1681526020016000151581525090565b828054612ec790613899565b90600052602060002090601f016020900481019282612ee95760008555612f30565b82601f10612f0257805160ff1916838001178555612f30565b82800160010185558215612f30579182015b82811115612f2f578251825591602001919060010190612f14565b5b509050612f3d9190612f41565b5090565b5b80821115612f5a576000816000905550600101612f42565b5090565b6000604051905090565b600080fd5b600080fd5b60007fffffffff0000000000000000000000000000000000000000000000000000000082169050919050565b612fa781612f72565b8114612fb257600080fd5b50565b600081359050612fc481612f9e565b92915050565b600060208284031215612fe057612fdf612f68565b5b6000612fee84828501612fb5565b91505092915050565b60008115159050919050565b61300c81612ff7565b82525050565b60006020820190506130276000830184613003565b92915050565b600081519050919050565b600082825260208201905092915050565b60005b8381101561306757808201518184015260208101905061304c565b83811115613076576000848401525b50505050565b6000601f19601f8301169050919050565b60006130988261302d565b6130a28185613038565b93506130b2818560208601613049565b6130bb8161307c565b840191505092915050565b600060208201905081810360008301526130e0818461308d565b905092915050565b6000819050919050565b6130fb816130e8565b811461310657600080fd5b50565b600081359050613118816130f2565b92915050565b60006020828403121561313457613133612f68565b5b600061314284828501613109565b91505092915050565b600073ffffffffffffffffffffffffffffffffffffffff82169050919050565b60006131768261314b565b9050919050565b6131868161316b565b82525050565b60006020820190506131a1600083018461317d565b92915050565b6131b08161316b565b81146131bb57600080fd5b50565b6000813590506131cd816131a7565b92915050565b600080604083850312156131ea576131e9612f68565b5b60006131f8858286016131be565b925050602061320985828601613109565b9150509250929050565b61321c816130e8565b82525050565b60006020820190506132376000830184613213565b92915050565b6000806040838503121561325457613253612f68565b5b600061326285828601613109565b925050602061327385828601613109565b9150509250929050565b60008060006060848603121561329657613295612f68565b5b60006132a4868287016131be565b93505060206132b5868287016131be565b92505060406132c686828701613109565b9150509250925092565b600081519050919050565b600082825260208201905092915050565b6000819050602082019050919050565b613305816130e8565b82525050565b6133148161316b565b82525050565b61332381612ff7565b82525050565b60808201600082015161333f60008501826132fc565b50602082015161335260208501826132fc565b506040820151613365604085018261330b565b506060820151613378606085018261331a565b50505050565b600061338a8383613329565b60808301905092915050565b6000602082019050919050565b60006133ae826132d0565b6133b881856132db565b93506133c3836132ec565b8060005b838110156133f45781516133db888261337e565b97506133e683613396565b9250506001810190506133c7565b5085935050505092915050565b6000602082019050818103600083015261341b81846133a3565b905092915050565b600080fd5b600080fd5b7f4e487b7100000000000000000000000000000000000000000000000000000000600052604160045260246000fd5b6134658261307c565b810181811067ffffffffffffffff821117156134845761348361342d565b5b80604052505050565b6000613497612f5e565b90506134a3828261345c565b919050565b600067ffffffffffffffff8211156134c3576134c261342d565b5b6134cc8261307c565b9050602081019050919050565b82818337600083830152505050565b60006134fb6134f6846134a8565b61348d565b90508281526020810184848401111561351757613516613428565b5b6135228482856134d9565b509392505050565b600082601f83011261353f5761353e613423565b5b813561354f8482602086016134e8565b91505092915050565b60006020828403121561356e5761356d612f68565b5b600082013567ffffffffffffffff81111561358c5761358b612f6d565b5b6135988482850161352a565b91505092915050565b6080820160008201516135b760008501826132fc565b5060208201516135ca60208501826132fc565b5060408201516135dd604085018261330b565b5060608201516135f0606085018261331a565b50505050565b600060808201905061360b60008301846135a1565b92915050565b60006020828403121561362757613626612f68565b5b6000613635848285016131be565b91505092915050565b61364781612ff7565b811461365257600080fd5b50565b6000813590506136648161363e565b92915050565b6000806040838503121561368157613680612f68565b5b600061368f858286016131be565b92505060206136a085828601613655565b9150509250929050565b600067ffffffffffffffff8211156136c5576136c461342d565b5b6136ce8261307c565b9050602081019050919050565b60006136ee6136e9846136aa565b61348d565b90508281526020810184848401111561370a57613709613428565b5b6137158482856134d9565b509392505050565b600082601f83011261373257613731613423565b5b81356137428482602086016136db565b91505092915050565b6000806000806080858703121561376557613764612f68565b5b6000613773878288016131be565b9450506020613784878288016131be565b935050604061379587828801613109565b925050606085013567ffffffffffffffff8111156137b6576137b5612f6d565b5b6137c28782880161371d565b91505092959194509250565b600080604083850312156137e5576137e4612f68565b5b600083013567ffffffffffffffff81111561380357613802612f6d565b5b61380f8582860161352a565b925050602061382085828601613109565b9150509250929050565b6000806040838503121561384157613840612f68565b5b600061384f858286016131be565b9250506020613860858286016131be565b9150509250929050565b7f4e487b7100000000000000000000000000000000000000000000000000000000600052602260045260246000fd5b600060028204905060018216806138b157607f821691505b6020821081036138c4576138c361386a565b5b50919050565b7f4552433732313a20617070726f76656420717565727920666f72206e6f6e657860008201527f697374656e7420746f6b656e0000000000000000000000000000000000000000602082015250565b6000613926602c83613038565b9150613931826138ca565b604082019050919050565b6000602082019050818103600083015261395581613919565b9050919050565b7f4552433732313a20617070726f76616c20746f2063757272656e74206f776e6560008201527f7200000000000000000000000000000000000000000000000000000000000000602082015250565b60006139b8602183613038565b91506139c38261395c565b604082019050919050565b600060208201905081810360008301526139e7816139ab565b9050919050565b7f4552433732313a20617070726f76652063616c6c6572206973206e6f74206f7760008201527f6e6572206e6f7220617070726f76656420666f7220616c6c0000000000000000602082015250565b6000613a4a603883613038565b9150613a55826139ee565b604082019050919050565b60006020820190508181036000830152613a7981613a3d565b9050919050565b7f596f7520617265206e6f7420746865206f776e6572206f662074686973206e6660008201527f7400000000000000000000000000000000000000000000000000000000000000602082015250565b6000613adc602183613038565b9150613ae782613a80565b604082019050919050565b60006020820190508181036000830152613b0b81613acf565b9050919050565b7f4974656d20697320616c7265616479206f6e2073616c65000000000000000000600082015250565b6000613b48601783613038565b9150613b5382613b12565b602082019050919050565b60006020820190508181036000830152613b7781613b3b565b9050919050565b7f5072696365206d75737420626520657175616c20746f206c697374696e67207060008201527f7269636500000000000000000000000000000000000000000000000000000000602082015250565b6000613bda602483613038565b9150613be582613b7e565b604082019050919050565b60006020820190508181036000830152613c0981613bcd565b9050919050565b7f4552433732313a207472616e736665722063616c6c6572206973206e6f74206f60008201527f776e6572206e6f7220617070726f766564000000000000000000000000000000602082015250565b6000613c6c603183613038565b9150613c7782613c10565b604082019050919050565b60006020820190508181036000830152613c9b81613c5f565b9050919050565b7f596f7520616c7265616479206f776e2074686973204e46540000000000000000600082015250565b6000613cd8601883613038565b9150613ce382613ca2565b602082019050919050565b60006020820190508181036000830152613d0781613ccb565b9050919050565b7f506c65617365207375626d6974207468652061736b696e672070726963650000600082015250565b6000613d44601e83613038565b9150613d4f82613d0e565b602082019050919050565b60006020820190508181036000830152613d7381613d37565b9050919050565b7f496e646578206f7574206f6620626f756e647300000000000000000000000000600082015250565b6000613db0601383613038565b9150613dbb82613d7a565b602082019050919050565b60006020820190508181036000830152613ddf81613da3565b9050919050565b7f4e487b7100000000000000000000000000000000000000000000000000000000600052603260045260246000fd5b7f4e487b7100000000000000000000000000000000000000000000000000000000600052601160045260246000fd5b6000613e4f826130e8565b9150613e5a836130e8565b9250827fffffffffffffffffffffffffffffffffffffffffffffffffffffffffffffffff03821115613e8f57613e8e613e15565b5b828201905092915050565b6000613ea5826130e8565b91507fffffffffffffffffffffffffffffffffffffffffffffffffffffffffffffffff8203613ed757613ed6613e15565b5b600182019050919050565b600081905092915050565b6000613ef88261302d565b613f028185613ee2565b9350613f12818560208601613049565b80840191505092915050565b6000613f2a8284613eed565b915081905092915050565b7f4552433732313a206f776e657220717565727920666f72206e6f6e657869737460008201527f656e7420746f6b656e0000000000000000000000000000000000000000000000602082015250565b6000613f91602983613038565b9150613f9c82613f35565b604082019050919050565b60006020820190508181036000830152613fc081613f84565b9050919050565b7f4552433732313a2062616c616e636520717565727920666f7220746865207a6560008201527f726f206164647265737300000000000000000000000000000000000000000000602082015250565b6000614023602a83613038565b915061402e82613fc7565b604082019050919050565b6000602082019050818103600083015261405281614016565b9050919050565b7f4f776e61626c653a2063616c6c6572206973206e6f7420746865206f776e6572600082015250565b600061408f602083613038565b915061409a82614059565b602082019050919050565b600060208201905081810360008301526140be81614082565b9050919050565b7f5072696365206d757374206265206174206c6561737420312077656900000000600082015250565b60006140fb601c83613038565b9150614106826140c5565b602082019050919050565b6000602082019050818103600083015261412a816140ee565b9050919050565b7f546f6b656e55524920616c726561647920657869737473000000000000000000600082015250565b6000614167601783613038565b915061417282614131565b602082019050919050565b600060208201905081810360008301526141968161415a565b9050919050565b7f45524337323155524953746f726167653a2055524920717565727920666f722060008201527f6e6f6e6578697374656e7420746f6b656e000000000000000000000000000000602082015250565b60006141f9603183613038565b91506142048261419d565b604082019050919050565b60006020820190508181036000830152614228816141ec565b9050919050565b600061423b8285613eed565b91506142478284613eed565b91508190509392505050565b7f4f776e61626c653a206e6577206f776e657220697320746865207a65726f206160008201527f6464726573730000000000000000000000000000000000000000000000000000602082015250565b60006142af602683613038565b91506142ba82614253565b604082019050919050565b600060208201905081810360008301526142de816142a2565b9050919050565b7f4552433732313a206f70657261746f7220717565727920666f72206e6f6e657860008201527f697374656e7420746f6b656e0000000000000000000000000000000000000000602082015250565b6000614341602c83613038565b915061434c826142e5565b604082019050919050565b6000602082019050818103600083015261437081614334565b9050919050565b7f4552433732313a207472616e736665722066726f6d20696e636f72726563742060008201527f6f776e6572000000000000000000000000000000000000000000000000000000602082015250565b60006143d3602583613038565b91506143de82614377565b604082019050919050565b60006020820190508181036000830152614402816143c6565b9050919050565b7f4552433732313a207472616e7366657220746f20746865207a65726f2061646460008201527f7265737300000000000000000000000000000000000000000000000000000000602082015250565b6000614465602483613038565b915061447082614409565b604082019050919050565b6000602082019050818103600083015261449481614458565b9050919050565b60006144a6826130e8565b91506144b1836130e8565b9250828210156144c4576144c3613e15565b5b828203905092915050565b7f436f756e7465723a2064656372656d656e74206f766572666c6f770000000000600082015250565b6000614505601b83613038565b9150614510826144cf565b602082019050919050565b60006020820190508181036000830152614534816144f8565b9050919050565b7f4552433732313a20617070726f766520746f2063616c6c657200000000000000600082015250565b6000614571601983613038565b915061457c8261453b565b602082019050919050565b600060208201905081810360008301526145a081614564565b9050919050565b7f4552433732313a207472616e7366657220746f206e6f6e20455243373231526560008201527f63656976657220696d706c656d656e7465720000000000000000000000000000602082015250565b6000614603603283613038565b915061460e826145a7565b604082019050919050565b60006020820190508181036000830152614632816145f6565b9050919050565b7f45524337323155524953746f726167653a2055524920736574206f66206e6f6e60008201527f6578697374656e7420746f6b656e000000000000000000000000000000000000602082015250565b6000614695602e83613038565b91506146a082614639565b604082019050919050565b600060208201905081810360008301526146c481614688565b9050919050565b7f7072696365206d757374206265206174206c6561737420312077656900000000600082015250565b6000614701601c83613038565b915061470c826146cb565b602082019050919050565b60006020820190508181036000830152614730816146f4565b9050919050565b600060808201905061474c6000830187613213565b6147596020830186613213565b614766604083018561317d565b6147736060830184613003565b95945050505050565b7f4552433732314d657461646174613a2055524920717565727920666f72206e6f60008201527f6e6578697374656e7420746f6b656e0000000000000000000000000000000000602082015250565b60006147d8602f83613038565b91506147e38261477c565b604082019050919050565b60006020820190508181036000830152614807816147cb565b9050919050565b600081519050919050565b600082825260208201905092915050565b60006148358261480e565b61483f8185614819565b935061484f818560208601613049565b6148588161307c565b840191505092915050565b6000608082019050614878600083018761317d565b614885602083018661317d565b6148926040830185613213565b81810360608301526148a4818461482a565b905095945050505050565b6000815190506148be81612f9e565b92915050565b6000602082840312156148da576148d9612f68565b5b60006148e8848285016148af565b91505092915050565b7f4e487b7100000000000000000000000000000000000000000000000000000000600052601260045260246000fd5b600061492b826130e8565b9150614936836130e8565b925082614946576149456148f1565b5b828204905092915050565b600061495c826130e8565b9150614967836130e8565b925082614977576149766148f1565b5b828206905092915050565b7f4e487b7100000000000000000000000000000000000000000000000000000000600052603160045260246000fd5b7f4552433732313a206d696e7420746f20746865207a65726f2061646472657373600082015250565b60006149e7602083613038565b91506149f2826149b1565b602082019050919050565b60006020820190508181036000830152614a16816149da565b9050919050565b7f4552433732313a20746f6b656e20616c7265616479206d696e74656400000000600082015250565b6000614a53601c83613038565b9150614a5e82614a1d565b602082019050919050565b60006020820190508181036000830152614a8281614a46565b905091905056fea2646970667358221220e8d520110aa73a10e873a9dfaf3f1ceadcd5899415264558245a6846992960a464736f6c634300080e0033",
  "immutableReferences": {},
  "source": "// SPDX-License-Identifier: MIT\npragma solidity >=0.4.22 <0.9.0;\nimport \"@openzeppelin/contracts/token/ERC721/extensions/ERC721URIStorage.sol\";\nimport \"@openzeppelin/contracts/utils/Counters.sol\";\nimport \"@openzeppelin/contracts/access/Ownable.sol\";\n\ncontract NftMarket is ERC721URIStorage, Ownable {\n  using Counters for Counters.Counter;\n\n  struct NftItem {\n    uint tokenId;\n    uint price;\n    address creator;\n    bool isListed;\n  }\n\n  uint public listingPrice = 0.025 ether;\n\n  Counters.Counter private _listedItems;\n  Counters.Counter private _tokenIds;\n\n\n  mapping(string => bool) private _usedTokenURIs;\n  mapping(uint => NftItem) private _idToNftItem;\n\n  // mapping of address user to mapping of current index to tokenId\n  mapping(address => mapping(uint => uint)) private _ownedTokens;\n  mapping(uint =>uint) private _idToOwnedIndex;\n\n  // all tokens in the array\n  uint256[] private _allNfts;\n  mapping(uint => uint) private _idToNftIndex;\n\n  event NftItemCreated (\n    uint tokenId,\n    uint price,\n    address creator,\n    bool isListed\n  );\n\n  constructor() ERC721(\"PlayersNFT\", \"PNFT\") {}\n\n  function setListingPrice(uint newPrice) external onlyOwner {\n    require(newPrice  > 0, \"Price must be at least 1 wei\");\n    listingPrice = newPrice;\n  }\n\n  function getNftItem(uint tokenId) public view returns(NftItem memory) {\n    return _idToNftItem[tokenId];\n  }\n\n  function listedItemsCount() public view returns (uint) {\n    return _listedItems.current();\n  }\n\n  function tokenURIExists(string memory tokenURI) public view returns (bool) {\n    return _usedTokenURIs[tokenURI] == true;\n  }\n\n  function totalSupply() public view returns (uint) {\n    return _allNfts.length;\n  }\n\n  function tokenByIndex(uint index) public view returns (uint) {\n    // check that index exist on all nfts\n    require(index <  totalSupply(), \"Index out of bounds\");\n    return _allNfts[index];\n  }\n\n  function tokenOfOwnerByIndex(address owner, uint index) public view returns (uint) {\n    // check that index exist on all nfts\n    require(index <  ERC721.balanceOf(owner), \"Index out of bounds\");\n    return _ownedTokens[owner][index];\n  }\n\n  function getAllNftsOnSale() public view returns (NftItem[] memory) {\n    uint allItemsCounts = totalSupply();\n    uint currentIndex = 0;\n    // create an array nft items with the length of the already listed items\n    NftItem[] memory items = new NftItem[](_listedItems.current());\n\n    // for all items\n    for (uint i = 0; i < allItemsCounts; i++) {\n      uint tokenId = tokenByIndex(i);\n      // get item by id\n      NftItem storage item = _idToNftItem[tokenId];\n\n      // if the item is listed\n      if (item.isListed == true) {\n        items[currentIndex] = item;\n        currentIndex += 1;\n      }\n    }\n\n    return items;\n  }\n\n  function getOwnedNfts() public view returns (NftItem[] memory) {\n    uint ownedItemsCount = ERC721.balanceOf(msg.sender);\n    NftItem[] memory items = new NftItem[](ownedItemsCount);\n\n    for (uint i = 0; i < ownedItemsCount; i++) {\n      uint tokenId = tokenOfOwnerByIndex(msg.sender, i);\n      NftItem storage item = _idToNftItem[tokenId];\n      items[i] = item;\n    }\n\n    return items;\n  }\n\n  // creation of token \n  function mintToken(string memory tokenURI, uint price) public payable returns (uint) {\n    require(!tokenURIExists(tokenURI), \"TokenURI already exists\");\n    require(msg.value == listingPrice, \"Price must be equal to listing price\"\n    );\n\n    _tokenIds.increment();\n    _listedItems.increment();\n\n    uint newTokenId = _tokenIds.current();\n\n    _safeMint(msg.sender, newTokenId);\n    _setTokenURI(newTokenId, tokenURI);\n    _createNftItem(newTokenId, price);\n    _usedTokenURIs[tokenURI] = true;\n\n    return newTokenId;\n  }\n\n  function buyNft(\n    uint tokenId\n  ) public payable {\n    uint price = _idToNftItem[tokenId].price;\n    address owner = ERC721.ownerOf(tokenId);\n\n    require(msg.sender != owner, \"You already own this NFT\");\n    require(msg.value == price, \"Please submit the asking price\");\n\n    // remove item from lising\n    _idToNftItem[tokenId].isListed = false;\n    _listedItems.decrement();\n\n    // transfer the ownership\n    _transfer(owner, msg.sender, tokenId);\n    payable(owner).transfer(msg.value);\n  }\n\n  // list an nft to sale\n  function placeNftOnSale(uint tokenId, uint newPrice) public payable {\n    require(ERC721.ownerOf(tokenId) == msg.sender, \"You are not the owner of this nft\");\n    require(_idToNftItem[tokenId].isListed == false, \"Item is already on sale\");\n    require(msg.value == listingPrice, \"Price must be equal to listing price\");\n\n    _idToNftItem[tokenId].isListed = true;\n    _idToNftItem[tokenId].price = newPrice;\n    _listedItems.increment();\n\n  }\n\n  // automatically list the item after minting it\n  function _createNftItem(uint tokenId, uint price) private {\n    require(price > 0, \"price must be at least 1 wei\");\n    \n\n    _idToNftItem[tokenId] = NftItem(\n      tokenId,\n      price,\n      msg.sender,\n      true\n    );\n\n    emit NftItemCreated(\n      tokenId, \n      price, \n      msg.sender,\n      true\n    );\n  }\n\n  function _beforeTokenTransfer(address from, address to, uint tokenId) internal virtual override {\n    super._beforeTokenTransfer(from, to, tokenId);\n\n    // minting/creating token \n    if(from == address(0)) {\n      _addTokenToAllTokensEnumeration(tokenId);\n    }  // remove ownership if owner/seller is not the same user/buyer it\n    else if (from != to) {\n      _removeTokenFromOwnerEnumeration(from, tokenId);\n    } \n\n    if(to == address(0)) {\n      _removeTokenFromAllTokensEnumeration(tokenId);\n    } // add token to buyer if owner/seller is not the same user/buyer it\n    else if (to != from) {\n      _addTokenToOwnerEnumeration(to, tokenId);\n    }\n\n  }\n\n  function _addTokenToAllTokensEnumeration(uint tokenId) private {\n    // ex: [tokenID => _allNfts.length] maps id to array's length\n    // first iteration: --> [1 => 0] = [1]\n    // second iteration  [1 => 0, 2 => 1 ] = [1, 2].\n    _idToNftIndex[tokenId] = _allNfts.length;\n    _allNfts.push(tokenId);\n  }\n\n  function _addTokenToOwnerEnumeration(address to,  uint tokenId) private {\n    // gets tokens owned by user\n    uint length = ERC721.balanceOf(to); // if user has 0 tokens then length = 0\n\n    _ownedTokens[to][length] = tokenId; // user addresss => 0 => 1\n    _idToOwnedIndex[tokenId] = length;  // 1 => 0 \n  }\n\n  // removes and updates mapping of tokens to owner \n  function _removeTokenFromOwnerEnumeration(address from, uint tokenId) private {\n    // ex: _ownedTokens: {token1: 0, token2: 1, token3: 2},  _idToOwnedIndex: {0:token1, 1: token2, 2: token3}\n    // if tokenId = token2 then \n    // result: _ownedTokens: {token1: 0, token3: 1},  _idToOwnedIndex: {0: token1, 1: token3}\n    uint lastTokenIndex = ERC721.balanceOf(from) - 1; // get last index of tokens owned\n    uint tokenIndex = _idToOwnedIndex[tokenId]; // get the index of the desired token in trade\n\n    if(tokenIndex != lastTokenIndex) { // if the token in trade does not happen to be the last token/index in the array\n      uint lastTokenId = _ownedTokens[from][lastTokenIndex]; // get the id from the last token owned\n\n      // remapping to update values and positions\n      _ownedTokens[from][tokenIndex] = lastTokenId; // replace the index of the traded token to the last token id\n      _idToOwnedIndex[lastTokenId] = tokenIndex; // replace the id of last token to the traded token\n    }\n\n    delete _idToOwnedIndex[tokenId]; // delete the index mapping to the token in trade from the previous owner\n    delete _ownedTokens[from][lastTokenIndex]; // delete the token in trade from the previous owner\n  }\n\n  //similar to function above\n  function _removeTokenFromAllTokensEnumeration(uint tokenId) private {\n    uint lastTokenIndex = _allNfts.length - 1; // get the index of the last token\n    uint tokenIndex = _idToNftIndex[tokenId]; // get the index of the traded token \n    uint lastTokenId = _allNfts[lastTokenIndex]; // get the id of the las token\n\n    _allNfts[tokenIndex] = lastTokenId; //replace the id of the traded token to the last token id\n    _idToNftIndex[lastTokenId] = tokenIndex; // replace the index of the last token to the traded token\n\n    delete _idToNftIndex[tokenId]; // delete index of traded token\n    _allNfts.pop(); // delete last token\n  }\n}\n",
  "sourcePath": "/Users/sarmunbustillo/Documents/Code/nft-market/contracts/NftMarket.sol",
  "compiler": {
    "name": "solc",
    "version": "0.8.14+commit.80d49f37.Emscripten.clang"
  },
  "schemaVersion": "3.4.7",
  "updatedAt": "2022-07-18T20:03:49.668Z",
  "networkType": "ethereum",
  "devdoc": {
    "kind": "dev",
    "methods": {
      "approve(address,uint256)": {
        "details": "See {IERC721-approve}."
      },
      "balanceOf(address)": {
        "details": "See {IERC721-balanceOf}."
      },
      "getApproved(uint256)": {
        "details": "See {IERC721-getApproved}."
      },
      "isApprovedForAll(address,address)": {
        "details": "See {IERC721-isApprovedForAll}."
      },
      "name()": {
        "details": "See {IERC721Metadata-name}."
      },
      "owner()": {
        "details": "Returns the address of the current owner."
      },
      "ownerOf(uint256)": {
        "details": "See {IERC721-ownerOf}."
      },
      "renounceOwnership()": {
        "details": "Leaves the contract without owner. It will not be possible to call `onlyOwner` functions anymore. Can only be called by the current owner. NOTE: Renouncing ownership will leave the contract without an owner, thereby removing any functionality that is only available to the owner."
      },
      "safeTransferFrom(address,address,uint256)": {
        "details": "See {IERC721-safeTransferFrom}."
      },
      "safeTransferFrom(address,address,uint256,bytes)": {
        "details": "See {IERC721-safeTransferFrom}."
      },
      "setApprovalForAll(address,bool)": {
        "details": "See {IERC721-setApprovalForAll}."
      },
      "supportsInterface(bytes4)": {
        "details": "See {IERC165-supportsInterface}."
      },
      "symbol()": {
        "details": "See {IERC721Metadata-symbol}."
      },
      "tokenURI(uint256)": {
        "details": "See {IERC721Metadata-tokenURI}."
      },
      "transferFrom(address,address,uint256)": {
        "details": "See {IERC721-transferFrom}."
      },
      "transferOwnership(address)": {
        "details": "Transfers ownership of the contract to a new account (`newOwner`). Can only be called by the current owner."
      }
    },
    "version": 1
  },
  "userdoc": {
    "kind": "user",
    "methods": {},
    "version": 1
  }
}